:020000040800F2
:1000000000000220FD0700087907000881070008AA
:100010008907000891070008990700080000000000
:10002000000000000000000000000000A107000820
:10003000AF07000800000000BD070008CB0700085C
:100040004D0800084D0800084D0800084D0800083C
:100050004D0800084D0800084D0800084D0800082C
:100060004D0800084D0800084D0800084D0800081C
:100070004D0800084D0800084D0800084D0800080C
:100080004D0800084D0800084D0800080000000059
:100090000000000000000000000000004D08000803
:1000A0004D0800084D0800084D0800084D080008DC
:1000B0004D0800084D0800084D0800084D080008CC
:1000C0004D0800084D0800084D0800084D080008BC
:1000D0004D0800084D0800084D0800080000000009
:1000E0004D0800084D0800084D08000800000000F9
:1000F0000000000000000000000000004D080008A3
:10010000000000004D0800084D0800084D080008D8
:1001100000000000000000000000000000000000DF
:100120004D0800084D0800084D0800084D0800085B
:100130004D08000800000000000000000000000062
:100140000000000000000000000000004D08000852
:100150004D0800084D0800084D0800084D0800082B
:100160004D0800084D0800080000000000000000D5
:10017000000000000000000000000000000000007F
:10018000000000004D080008000000000000000012
:080190004D0800084D080008AD
:1001980010B5054C237833B9044B13B10448AFF3B9
:1001A80000800123237010BD0C0000200000000017
:1001B8008C1C000808B5034B1BB103490348AFF377
:1001C800008008BD00000000100000208C1C000802
:1001D80053B94AB9002908BF00281CBF4FF0FF31A6
:1001E8004FF0FF3000F06AB9ADF1080C6DE904CEAC
:1001F80000F006F8DDF804E0DDE9022304B07047FA
:100208002DE9F047089D0C46002B4ED194468C45AD
:100218008646B2FA82F262D94AB1C2F1200391400D
:1002280020FA03F30CFA02FC194300FA02FE4FEA23
:100238001C471FFA8CF6B1FBF7F44FEA1E4307FB85
:10024800141143EA014304FB06F199420AD91CEB55
:10025800030304F1FF3080F01281994240F20F81CC
:10026800023C6344591A1FFA8EF3B1FBF7F007FBFF
:10027800101143EA014300FB06F69E420AD91CEB23
:10028800030300F1FF3180F0FC809E4240F2F980C8
:10029800634402389B1B40EA044000211DB1D3404F
:1002A8000022C5E90032BDE8F0878B4205D90DB1BF
:1002B800C5E9000100210846F5E7B3FA83F10029F2
:1002C80046D1A34202D39042C0F0F080861A64EB74
:1002D80003030120002DE6D0C5E90063E3E7002A07
:1002E80040F09080A1EB0C044FEA1C481FFA8CF7F1
:1002F8000121B4FBF8F64FEA1E4308FB164443EA13
:10030800044307FB06F0984208D91CEB030306F1E7
:10031800FF3402D2984200F2CD8026461C1A1FFAFA
:100328008EF3B4FBF8F008FB104443EA044300FBE7
:1003380007F79F4208D91CEB030300F1FF3402D2F0
:100348009F4200F2B0802046DB1B40EA0640A5E74A
:10035800C1F120068B4022FA06F71F4320FA06FC5B
:1003680004FA01F343EA0C03F44000FA01F8380CEC
:100378004FEA1349B4FBF0FE1FFA87FC00FB1E444A
:1003880049EA04440EFB0CF9A14502FA01F20AD924
:100398003C190EF1FF3A80F08480A14540F281803B
:1003A800AEF1020E3C44A4EB09041FFA83F9B4FB36
:1003B800F0F300FB134449EA044403FB0CFCA44596
:1003C80007D93C1903F1FF3067D2A44565D9023B30
:1003D8003C4443EA0E40A0FB0293A4EB0C049C426D
:1003E800CE469C4651D34ED055B1B8EB0E0364EBC4
:1003F8000C0404FA06F6CB401E43CC40C5E9006461
:10040800002150E7C2F1200320FA03F10CFA02FCA4
:1004180024FA03F394400C434FEA1C4800FA02FE06
:100428001FFA8CF7B3FBF8F008FB1031230C43EAF2
:10043800014300FB07F1994208D91CEB030300F1C3
:10044800FF362CD299422AD9023863445B1AA4B2E7
:10045800B3FBF8F108FB113344EA034401FB07F34B
:10046800A34208D91CEB040401F1FF3613D2A342BE
:1004780011D902396444E41A41EA004139E70446D3
:10048800F0E6084606E7C845AED2B9EB020E63EBC4
:10049800070C0138A8E73146EDE7034699E73046EF
:1004A800D4E7D6467FE7634402384DE7064623463D
:1004B80008460FE7023E634430E700BF704700BFBD
:1004C80080B483B000AF7860084B1B6800225A6282
:1004D80000BF064B1B685B6A7A689A42F9D800BF6E
:1004E80000BF0C37BD465DF8047B7047280000202C
:1004F80080B500AF00F0A8F900F020F800F07CF813
:100508000B4801F04BF900F0B1F80A48FFF7D8FFA3
:1005180001222021084800F073FC0648FFF7D0FFAD
:1005280000222021044800F06BFC00BFEDE700BF6B
:100538002800002040420F000000024080B594B01F
:1005480000AF07F1200330220021184601F06EFBAE
:1005580007F10C0300221A605A609A60DA601A6187
:100568000023BB60224B1B6C214A43F08053136469
:100578001F4B1B6C03F08053BB60BB6800237B6080
:100588001C4B1B681B4A43F440431360194B1B6800
:1005980003F440437B607B6802233B620123FB62D8
:1005A80010233B630023BB6307F12003184600F0C8
:1005B80041FC0346002B01D000F08AF80F23FB60B2
:1005C80000233B6100237B610023BB610023FB61A7
:1005D80007F10C030021184600F0A4FE0346002B87
:1005E80001D000F075F800BF5037BD4680BD00BF90
:1005F800003802400070004080B584B000AF3B4630
:1006080000221A605A609A60DA60164B164A1A601D
:10061800144B0F225A60134B00229A60114B4FF66D
:10062800FF72DA600F4B00221A610E4B00229A61AA
:100638000C4801F063F80346002B01D000F048F89D
:100648004FF480533B603B461946064801F000F9D9
:100658000346002B01D000F03BF800BF1037BD4621
:1006680080BD00BF280000200040014080B586B052
:1006780000AF00233B60144B1B6B134A43F001038C
:100688001363114B1B6B03F001033B603B680022B3
:1006980020210E4800F0B4FB3B1D00221A605A606E
:1006A8009A60DA601A6120237B600123BB60002313
:1006B800FB6000233B613B1D1946044800F01CFA0F
:1006C80000BF1837BD4680BD003802400000024018
:1006D80080B400AF72B600BF00BFFDE780B582B03E
:1006E80000AF00237B60104B5B6C0F4A43F48043E0
:1006F80053640D4B5B6C03F480437B607B68002381
:100708003B60094B1B6C084A43F080531364064B4B
:100718001B6C03F080533B603B68072000F0B8F97E
:1007280000BF0837BD4680BD0038024080B485B0A0
:1007380000AF78607B681B680B4A93420DD1002399
:10074800FB600A4B5B6C094A43F480335364074BE4
:100758005B6C03F48033FB60FB6800BF1437BD4655
:100768005DF8047B704700BF00400140003802403C
:1007780080B400AF00BFFDE780B400AF00BFFDE765
:1007880080B400AF00BFFDE780B400AF00BFFDE755
:1007980080B400AF00BFFDE780B400AF00BFBD4626
:1007A8005DF8047B704780B400AF00BFBD465DF8BC
:1007B800047B704780B400AF00BFBD465DF8047B82
:1007C800704780B500AF00F091F800BF80BD000011
:1007D80080B400AF064BD3F88830054A43F4700361
:1007E800C2F8883000BFBD465DF8047B704700BF83
:1007F80000ED00E0DFF834D0FFF7EAFF0C480D49C0
:100808000D4A002302E0D458C4500433C4188C4263
:10081800F9D30A4A0A4C002301E013600432A242C9
:10082800FBD301F00BFAFFF763FE704700000220CC
:10083800000000200C000020C41C00080C00002050
:1008480074000020FEE7000080B500AF0E4B1B6867
:100858000D4A43F4007313600B4B1B680A4A43F4B8
:1008680080631360084B1B68074A43F48073136066
:10087800032000F00DF9002000F008F8FFF72EFF24
:100888000023184680BD00BF003C024080B582B0FE
:1008980000AF7860124B1A68124B1B7819464FF458
:1008A8007A73B3FBF1F3B2FBF3F3184600F017F9D0
:1008B8000346002B01D001230EE07B680F2B0AD8DA
:1008C800002279684FF0FF3000F0EDF8064A7B68A7
:1008D8001360002300E0012318460837BD4680BD99
:1008E80000000020080000200400002080B400AFB1
:1008F800064B1B781A46064B1B681344044A1360C0
:1009080000BFBD465DF8047B704700BF08000020AB
:100918007000002080B400AF034B1B681846BD462A
:100928005DF8047B704700BF7000002080B485B07C
:1009380000AF78607B6803F00703FB600C4BDB6853
:10094800BB60BA684FF6FF031340BB60FB681A022E
:10095800BB68134343F0BF6343F40033BB60044AEE
:10096800BB68D36000BF1437BD465DF8047B704791
:1009780000ED00E080B400AF044BDB681B0A03F015
:1009880007031846BD465DF8047B704700ED00E09C
:1009980080B483B000AF03463960FB7197F9073024
:1009A800002B0ADB3B68DAB20C4997F907301201D1
:1009B800D2B20B4483F800230AE03B68DAB2084954
:1009C800FB7903F00F03043B1201D2B20B441A76F1
:1009D80000BF0C37BD465DF8047B704700E100E0BE
:1009E80000ED00E080B489B000AFF860B9607A60CB
:1009F800FB6803F00703FB61FB69C3F10703042BE2
:100A080028BF0423BB61FB690433062B02D9FB69A9
:100A1800033B00E000237B614FF0FF32BB6902FA21
:100A280003F3DA43BB681A407B699A404FF0FF3101
:100A38007B6901FA03F3D9437B680B4013431846DB
:100A48002437BD465DF8047B7047000080B582B04E
:100A580000AF78607B68013BB3F1807F01D301234D
:100A68000FE00A4A7B68013B53600F214FF0FF30CB
:100A7800FFF78EFF054B00229A60044B07221A608D
:100A8800002318460837BD4680BD00BF10E000E0CF
:100A980080B582B000AF78607868FFF747FF00BF85
:100AA8000837BD4680BD80B586B000AF0346B96043
:100AB8007A60FB7300237B61FFF75CFF78617A68DB
:100AC800B9687869FFF78EFF024697F90F3011462B
:100AD8001846FFF75DFF00BF1837BD4680BD80B5DB
:100AE80082B000AF78607868FFF7B0FF0346184619
:100AF8000837BD4680BD000080B489B000AF78607B
:100B0800396000237B6100233B610023BB61002324
:100B1800FB6159E10122FB6902FA03F37B613B683F
:100B28001B687A6913403B613A697B699A4240F0D5
:100B380048813B685B6803F00303012B05D03B68E1
:100B48005B6803F00303022B30D17B689B68BB61B1
:100B5800FB695B00032202FA03F3DB43BA69134023
:100B6800BB613B68DA68FB695B0002FA03F3BA69A8
:100B78001343BB617B68BA699A607B685B68BB6139
:100B88000122FB6902FA03F3DB43BA691340BB6134
:100B98003B685B681B0903F00102FB6902FA03F377
:100BA800BA691343BB617B68BA695A603B685B6882
:100BB80003F00303032B17D07B68DB68BB61FB6979
:100BC8005B00032202FA03F3DB43BA691340BB61FB
:100BD8003B689A68FB695B0002FA03F3BA6913433E
:100BE800BB617B68BA69DA603B685B6803F0030342
:100BF800022B23D1FB69DA087B68083253F82230CC
:100C0800BB61FB6903F007039B000F2202FA03F3A1
:100C1800DB43BA691340BB613B681A69FB6903F09F
:100C280007039B0002FA03F3BA691343BB61FB692C
:100C3800DA087B680832B96943F822107B681B68B8
:100C4800BB61FB695B00032202FA03F3DB43BA6969
:100C58001340BB613B685B6803F00302FB695B0000
:100C680002FA03F3BA691343BB617B68BA691A6075
:100C78003B685B6803F44033002B00F0A28000233C
:100C8800FB60574B5B6C564A43F480435364544BA8
:100C98005B6C03F48043FB60FB68524AFB699B086A
:100CA800023352F82330BB61FB6903F003039B0056
:100CB8000F2202FA03F3DB43BA691340BB617B6876
:100CC800494A934219D07B68484A934213D07B68BB
:100CD800474A93420DD07B68464A934207D07B68C7
:100CE800454A934201D1042308E0072306E0032381
:100CF80004E0022302E0012300E00023FA6902F085
:100D0800030292009340BA691343BB613549FB69FA
:100D18009B080233BA6941F82320384B9B68BB61B2
:100D28003B69DB43BA691340BB613B685B6803F40A
:100D38008013002B03D0BA693B691343BB612F4A68
:100D4800BB6993602D4BDB68BB613B69DB43BA69C8
:100D58001340BB613B685B6803F40013002B03D0AE
:100D6800BA693B691343BB61244ABB69D360234B0F
:100D78005B68BB613B69DB43BA691340BB613B6895
:100D88005B6803F40033002B03D0BA693B69134353
:100D9800BB611A4ABB695360184B1B68BB613B694E
:100DA800DB43BA691340BB613B685B6803F480337B
:100DB800002B03D0BA693B691343BB610F4ABB6977
:100DC8001360FB690133FB61FB690F2B7FF6A2AE51
:100DD80000BF00BF2437BD465DF8047B704700BFE5
:100DE8000038024000380140000002400004024080
:100DF80000080240000C024000100240003C014084
:100E080080B483B000AF78600B467B8013467B705C
:100E18007B78002B03D07A887B689A6103E07B8813
:100E28001A047B689A6100BF0C37BD465DF8047BE5
:100E38007047000080B586B000AF78607B68002BF3
:100E480001D1012367E27B681B6803F00103002BD3
:100E580075D0884B9B6803F00C03042B0CD0854B92
:100E68009B6803F00C03082B12D1824B5B6803F4D8
:100E78008003B3F5800F0BD17E4B1B6803F400335E
:100E8800002B5BD07B685B68002B57D1012342E2C3
:100E98007B685B68B3F5803F06D1764B1B68754A63
:100EA80043F4803313601DE07B685B68B3F5A02FC3
:100EB8000CD1704B1B686F4A43F4802313606D4B51
:100EC8001B686C4A43F4803313600BE0694B1B6862
:100ED800684A23F480331360664B1B68654A23F421
:100EE800802313607B685B68002B13D0FFF712FD2B
:100EF800386108E0FFF70EFD02463B69D31A642B00
:100F080001D9032307E25B4B1B6803F40033002B72
:100F1800F0D014E0FFF7FEFC386108E0FFF7FAFCB8
:100F280002463B69D31A642B01D90323F3E1514BE1
:100F38001B6803F40033002BF0D100E000BF7B688E
:100F48001B6803F00203002B63D04A4B9B6803F035
:100F58000C03002B0BD0474B9B6803F00C03082BAA
:100F68001CD1444B5B6803F48003002B16D1414B22
:100F78001B6803F00203002B05D07B68DB68012B9C
:100F880001D00123C7E13B4B1B6823F0F8027B68C3
:100F98001B69DB00374913430B603AE07B68DB6869
:100FA800002B20D0344B01221A60FFF7B3FC3861C4
:100FB80008E0FFF7AFFC02463B69D31A022B01D9C0
:100FC8000323A8E12B4B1B6803F00203002BF0D08E
:100FD800284B1B6823F0F8027B681B69DB00254956
:100FE80013430B6015E0244B00221A60FFF792FCB4
:100FF800386108E0FFF78EFC02463B69D31A022BE2
:1010080001D9032387E11B4B1B6803F00203002B64
:10101800F0D17B681B6803F00803002B36D07B688F
:101028005B69002B16D0154B01221A60FFF772FC82
:10103800386108E0FFF76EFC02463B69D31A022BC1
:1010480001D9032367E10B4B5B6F03F00203002B0D
:10105800F0D01BE0094B00221A60FFF75BFC3861F7
:101068000EE0FFF757FC02463B69D31A022B07D95B
:10107800032350E10038024000004742800E4742F7
:10108800884B5B6F03F00203002BEAD17B681B6877
:1010980003F00403002B00F097800023FB75814BBD
:1010A8001B6C03F08053002B0FD10023BB607D4BDA
:1010B8001B6C7C4A43F0805313647A4B1B6C03F01F
:1010C8008053BB60BB680123FB75774B1B6803F437
:1010D8008073002B18D1744B1B68734A43F48073D8
:1010E8001360FFF717FC386108E0FFF713FC0246AE
:1010F8003B69D31A022B01D903230CE16A4B1B6805
:1011080003F48073002BF0D07B689B68012B06D119
:10111800644B1B6F634A43F0010313671CE07B6851
:101128009B68052B0CD15F4B1B6F5E4A43F0040391
:1011380013675C4B1B6F5B4A43F0010313670BE0BB
:10114800584B1B6F574A23F001031367554B1B6F0E
:10115800544A23F0040313677B689B68002B15D05F
:10116800FFF7D8FB38610AE0FFF7D4FB02463B697A
:10117800D31A41F28832934201D90323CBE0494B79
:101188001B6F03F00203002BEED014E0FFF7C2FB45
:1011980038610AE0FFF7BEFB02463B69D31A41F209
:1011A8008832934201D90323B5E03E4B1B6F03F00D
:1011B8000203002BEED1FB7D012B05D1394B1B6CB3
:1011C800384A23F0805313647B689B69002B00F036
:1011D800A180344B9B6803F00C03082B5CD07B6820
:1011E8009B69022B41D1314B00221A60FFF792FB19
:1011F800386108E0FFF78EFB02463B69D31A022BE1
:1012080001D9032387E0274B1B6803F00073002BE9
:10121800F0D17B68DA697B681B6A1A437B685B6A72
:101228009B011A437B689B6A5B08013B1B041A43BA
:101238007B68DB6A1B061B4913434B601B4B01226F
:101248001A60FFF767FB386108E0FFF763FB0246A7
:101258003B69D31A022B01D903235CE0114B1B68AD
:1012680003F00073002BF0D054E0104B00221A60FA
:10127800FFF750FB386108E0FFF74CFB02463B697B
:10128800D31A022B01D9032345E0064B1B6803F050
:101298000073002BF0D13DE07B689B69012B07D1DF
:1012A800012338E0003802400070004060004742E7
:1012B8001B4B5B68FB607B689B69012B28D0FB6834
:1012C80003F480027B68DB699A4221D1FB6803F052
:1012D8003F027B681B6A9A421AD1FA6847F6C073C4
:1012E80013407A68526A9201934211D1FB6803F461
:1012F80040327B689B6A5B08013B1B049A4207D11A
:10130800FB6803F070627B68DB6A1B069A4201D0B7
:10131800012300E0002318461837BD4680BD00BFF2
:101328000038024080B584B000AF786039607B68CF
:10133800002B01D10123CCE0684B1B6803F00703A5
:101348003A689A420CD9654B3A68D2B21A70634B24
:101358001B6803F007033A689A4201D00123B8E0FA
:101368007B681B6803F00203002B20D07B681B6896
:1013780003F00403002B05D0594B9B68584A43F4EB
:10138800E05393607B681B6803F00803002B05D0CB
:10139800534B9B68524A43F460439360504B9B689D
:1013A80023F0F0027B689B684D4913438B607B6890
:1013B8001B6803F00103002B44D07B685B68012B9A
:1013C80007D1474B1B6803F40033002B19D10123C5
:1013D8007FE07B685B68022B03D07B685B68032B2C
:1013E80007D13F4B1B6803F00073002B09D1012381
:1013F8006FE03B4B1B6803F00203002B01D1012374
:1014080067E0374B9B6823F003027B685B683449CD
:1014180013438B60FFF77EFAF8600AE0FFF77AFA69
:101428000246FB68D31A41F28832934201D903235A
:101438004FE02B4B9B6803F00C027B685B689B00BA
:101448009A42EBD1254B1B6803F007033A689A428E
:101458000CD2224B3A68D2B21A70204B1B6803F0A8
:1014680007033A689A4201D0012332E07B681B687F
:1014780003F00403002B08D0194B9B6823F4E052B7
:101488007B68DB68164913438B607B681B6803F035
:101498000803002B09D0124B9B6823F460427B6839
:1014A8001B69DB000E4913438B6000F021F80246EC
:1014B8000B4B9B681B0903F00F030A49CB5C22FA0C
:1014C80003F3094A1360094B1B681846FFF7DEF956
:1014D800002318461037BD4680BD00BF003C0240BF
:1014E80000380240A41C000800000020040000206E
:1014F8002DE9B04F94B000AF00237B640023FB6458
:1015080000233B640023BB64794B9B6803F00C0306
:10151800082B0DD0082B00F2E180002B02D0042B01
:1015280003D0DBE0734BBB64DBE0734BBB64D8E0F8
:101538006F4B5B6803F03F037B646D4B5B6803F4A0
:101548008003002B63D06A4B5B689B090022BB6356
:10155800FA63BB6BC3F308033B6300237B63D7E9E0
:101568000C4522462B464FF000004FF00001590170
:1015780041EAD261500102460B462146511A3961AF
:10158800294663EB01037B614FF000024FF0000333
:10159800D7E904AB59468B01514643EA916351465A
:1015A8008A015146B2EB0108594663EB01094FF035
:1015B80000024FF000034FEAC90343EA58734FEAA9
:1015C800C80290469946234618EB0303BB602B4696
:1015D80049EB0303FB604FF000024FF00003D7E92B
:1015E800024529464B02214643EAD15321464A0285
:1015F800104619467B6C0022BB62FA62D7E90A23BF
:10160800FEF7E6FD02460B461346FB6458E0384BEE
:101618005B689B09002218461146C0F308033B6229
:1016280000237B62D7E9088942464B464FF0000009
:101638004FF00001590141EAD261500102460B46C0
:101648004146B2EB010A494663EB010B4FF0000239
:101658004FF000034FEA8B1343EA9A634FEA8A126A
:10166800B2EB0A0463EB0B054FF000024FF00003E6
:10167800EB0043EA5473E20014461D464346E31860
:101688003B604B4645EB03037B604FF000024FF095
:101698000003D7E9004529468B02214643EA9153C6
:1016A80021468A02104619467B6C0022BB61FA610A
:1016B800D7E90623FEF78CFD02460B461346FB646A
:1016C8000B4B5B681B0C03F0030301335B003B64AB
:1016D800FA6C3B6CB2FBF3F3BB6402E0054BBB64F2
:1016E80000BFBB6C18465037BD46BDE8B08F00BF81
:1016F800003802400024F40000127A0080B582B05D
:1017080000AF78607B68002B01D1012341E07B6842
:1017180093F83D30DBB2002B06D17B68002283F8BA
:101728003C207868FFF702F87B68022283F83D20A6
:101738007B681A687B6804331946104600F050F934
:101748007B68012283F846207B68012283F83E20CB
:101758007B68012283F83F207B68012283F84020C0
:101768007B68012283F841207B68012283F84220AC
:101778007B68012283F843207B68012283F8442098
:101788007B68012283F845207B68012283F83D208D
:10179800002318460837BD4680BD000080B485B0D8
:1017A80000AF78607B6893F83D30DBB2012B01D045
:1017B80001233CE07B68022283F83D207B681B689C
:1017C8001E4A934218D07B681B68B3F1804F13D030
:1017D8007B681B681A4A93420ED07B681B68194ABB
:1017E800934209D07B681B68174A934204D07B68F0
:1017F8001B68164A934211D17B681B689B6803F0EB
:101808000703FB60FB68062B10D07B681B681A680F
:101818007B681B6842F001021A6007E07B681B685E
:101828001A687B681B6842F001021A600023184698
:101838001437BD465DF8047B704700BF00000140C7
:101848000004004000080040000C00400040014037
:1018580080B584B000AF786039600023FB737B6883
:1018680093F83C30012B01D10223B4E07B680122BC
:1018780083F83C207B68022283F83D207B681B6844
:101888009B68BB60BB6823F07703BB60BB6823F42D
:101898007F43BB607B681B68BA689A603B681B68BB
:1018A800B3F5005F3ED0B3F5005F00F28780B3F573
:1018B800805F00F08680B3F5805F7FD8702B1AD0E8
:1018C800702B7BD8602B50D0602B77D8502B3CD016
:1018D800502B73D8402B58D0402B6FD8302B64D066
:1018E800302B6BD8202B60D0202B67D8002B5CD0F6
:1018F800102B5AD062E07B6818683B6899683B688F
:101908005A683B68DB6800F071F97B681B689B6864
:10191800BB60BB6843F07703BB607B681B68BA6831
:101928009A604FE07B6818683B6899683B685A681A
:101938003B68DB6800F05AF97B681B689A687B682B
:101948001B6842F480429A603CE07B6818683B68F8
:1019580059683B68DB681A4600F0CEF87B681B685C
:101968005021184600F027F92CE07B6818683B687E
:1019780059683B68DB681A4600F0EDF87B681B681D
:101988006021184600F017F91CE07B6818683B686E
:1019980059683B68DB681A4600F0AEF87B681B683C
:1019A8004021184600F007F90CE07B681A683B688C
:1019B8001B681946104600F0FEF803E00123FB738C
:1019C80000E000BF7B68012283F83D207B6800228D
:1019D80083F83C20FB7B18461037BD4680BD0000CD
:1019E80080B485B000AF786039607B681B68FB60A5
:1019F8007B683A4A93420FD07B68B3F1804F0BD093
:101A08007B68374A934207D07B68364A934203D0B3
:101A18007B68354A934208D1FB6823F07003FB606A
:101A28003B685B68FA681343FB607B682B4A934208
:101A38001BD07B68B3F1804F17D07B68284A93424C
:101A480013D07B68274A93420FD07B68264A93427B
:101A58000BD07B68254A934207D07B68244A93427F
:101A680003D07B68234A934208D1FB6823F4407370
:101A7800FB603B68DB68FA681343FB60FB6823F094
:101A880080023B685B691343FB607B68FA681A60F5
:101A98003B689A687B68DA623B681A687B689A6276
:101AA8007B680E4A934203D13B681A697B681A63C4
:101AB8007B6801225A617B681B6903F00103012BD3
:101AC80005D17B681B6923F001027B681A6100BF9E
:101AD8001437BD465DF8047B704700BF0000014025
:101AE8000004004000080040000C00400040014095
:101AF800004401400048014080B487B000AFF8605E
:101B0800B9607A60FB681B6A7B61FB681B6A23F01B
:101B18000102FB681A62FB689B693B613B6923F021
:101B2800F0033B617B681B013A6913433B617B69A6
:101B380023F00A037B617A69BB6813437B61FB6806
:101B48003A699A61FB687A691A6200BF1C37BD4618
:101B58005DF8047B704780B487B000AFF860B96067
:101B68007A60FB681B6A7B61FB681B6A23F01002C2
:101B7800FB681A62FB689B693B613B6923F470430D
:101B88003B617B681B033A6913433B617B6923F024
:101B9800A0037B61BB681B017A6913437B61FB6807
:101BA8003A699A61FB687A691A6200BF1C37BD46B8
:101BB8005DF8047B704780B485B000AF7860396009
:101BC8007B689B68FB60FB6823F07003FB603A68E6
:101BD800FB68134343F00703FB607B68FA689A606D
:101BE80000BF1437BD465DF8047B704780B487B0EA
:101BF80000AFF860B9607A603B60FB689B687B6106
:101C08007B6923F47F437B613B681A027B681A4334
:101C1800BB6813437A6913437B61FB687A699A60EE
:101C280000BF1C37BD465DF8047B7047024403467D
:101C3800934200D1704703F8011BF9E770B50D4DC9
:101C48000D4C641BA4100026A64209D10B4D0C4C68
:101C580000F018F8641BA4100026A64205D170BD38
:101C680055F8043B98470136EEE755F8043B98478A
:101C78000136F2E7BC1C0008BC1C0008BC1C0008AC
:101C8800C01C0008F8B500BFF8BC08BC9E467047E9
:0C1C9800F8B500BFF8BC08BC9E467047C1
:101CA4000000000000000000010203040607080908
:081CB40054E5FF7F0100000070
:041CBC00BD0100085E
:041CC000990100087E
:0C1CC4000024F4001000000001000000EB
:04000005080007FDEB
:00000001FF
